{
    "_format": "hh-sol-artifact-1",
    "contractName": "MetaWallet",
    "sourceName": "contracts/MetaWallet.sol",
    "abi": [
        {
            "inputs": [],
            "name": "accountBalance",
            "outputs": [
                {
                    "internalType": "uint256",
                    "name": "",
                    "type": "uint256"
                }
            ],
            "stateMutability": "view",
            "type": "function"
        },
        {
            "inputs": [],
            "name": "getHistory",
            "outputs": [
                {
                    "components": [
                        {
                            "internalType": "address",
                            "name": "SenderAddress",
                            "type": "address"
                        },
                        {
                            "internalType": "address",
                            "name": "RecieverAddress",
                            "type": "address"
                        },
                        {
                            "internalType": "uint256",
                            "name": "Amount",
                            "type": "uint256"
                        }
                    ],
                    "internalType": "struct MetaWallet.TransferHistory[]",
                    "name": "",
                    "type": "tuple[]"
                }
            ],
            "stateMutability": "view",
            "type": "function"
        },
        {
            "inputs": [
                {
                    "internalType": "address payable",
                    "name": "_reciever",
                    "type": "address"
                }
            ],
            "name": "sendEthUser",
            "outputs": [],
            "stateMutability": "payable",
            "type": "function"
        }
    ],
    "bytecode": "0x608060405234801561001057600080fd5b5061076f806100206000396000f3fe6080604052600436106100345760003560e01c80631bc5e54514610039578063aa15efc814610055578063b0a1c1c414610080575b600080fd5b610053600480360381019061004e9190610486565b6100ab565b005b34801561006157600080fd5b5061006a6102b3565b60405161007791906105de565b60405180910390f35b34801561008c57600080fd5b50610095610404565b6040516100a2919061060f565b60405180910390f35b600034116100ee576040517f08c379a00000000000000000000000000000000000000000000000000000000081526004016100e5906106ad565b60405180910390fd5b60008173ffffffffffffffffffffffffffffffffffffffff166108fc349081150290604051600060405180830381858888f19350505050905080610167576040517f08c379a000000000000000000000000000000000000000000000000000000000815260040161015e90610719565b60405180910390fd5b6000803373ffffffffffffffffffffffffffffffffffffffff1673ffffffffffffffffffffffffffffffffffffffff16815260200190815260200160002060405180606001604052803373ffffffffffffffffffffffffffffffffffffffff1681526020018473ffffffffffffffffffffffffffffffffffffffff16815260200134815250908060018154018082558091505060019003906000526020600020906003020160009091909190915060008201518160000160006101000a81548173ffffffffffffffffffffffffffffffffffffffff021916908373ffffffffffffffffffffffffffffffffffffffff16021790555060208201518160010160006101000a81548173ffffffffffffffffffffffffffffffffffffffff021916908373ffffffffffffffffffffffffffffffffffffffff1602179055506040820151816002015550505050565b60606000803373ffffffffffffffffffffffffffffffffffffffff1673ffffffffffffffffffffffffffffffffffffffff168152602001908152602001600020805480602002602001604051908101604052809291908181526020016000905b828210156103fb57838290600052602060002090600302016040518060600160405290816000820160009054906101000a900473ffffffffffffffffffffffffffffffffffffffff1673ffffffffffffffffffffffffffffffffffffffff1673ffffffffffffffffffffffffffffffffffffffff1681526020016001820160009054906101000a900473ffffffffffffffffffffffffffffffffffffffff1673ffffffffffffffffffffffffffffffffffffffff1673ffffffffffffffffffffffffffffffffffffffff16815260200160028201548152505081526020019060010190610313565b50505050905090565b60003373ffffffffffffffffffffffffffffffffffffffff1631905090565b600080fd5b600073ffffffffffffffffffffffffffffffffffffffff82169050919050565b600061045382610428565b9050919050565b61046381610448565b811461046e57600080fd5b50565b6000813590506104808161045a565b92915050565b60006020828403121561049c5761049b610423565b5b60006104aa84828501610471565b91505092915050565b600081519050919050565b600082825260208201905092915050565b6000819050602082019050919050565b60006104ea82610428565b9050919050565b6104fa816104df565b82525050565b6000819050919050565b61051381610500565b82525050565b60608201600082015161052f60008501826104f1565b50602082015161054260208501826104f1565b506040820151610555604085018261050a565b50505050565b60006105678383610519565b60608301905092915050565b6000602082019050919050565b600061058b826104b3565b61059581856104be565b93506105a0836104cf565b8060005b838110156105d15781516105b8888261055b565b97506105c383610573565b9250506001810190506105a4565b5085935050505092915050565b600060208201905081810360008301526105f88184610580565b905092915050565b61060981610500565b82525050565b60006020820190506106246000830184610600565b92915050565b600082825260208201905092915050565b7f506c656173652067697665206d696e696d756d2076616c7565206f6620616d6f60008201527f756e740000000000000000000000000000000000000000000000000000000000602082015250565b600061069760238361062a565b91506106a28261063b565b604082019050919050565b600060208201905081810360008301526106c68161068a565b9050919050565b7f4661696c656420746f2073656e64204574686572000000000000000000000000600082015250565b600061070360148361062a565b915061070e826106cd565b602082019050919050565b60006020820190508181036000830152610732816106f6565b905091905056fea264697066735822122075ae25774ee2df3fa669d07d49b014030e9dd4a0485a23dd4f57d2392cd02a6064736f6c63430008180033",
    "linkReferences": {},
    "deployedLinkReferences": {}
}